:060000000A128A11122809
:10000800FE00030E83120313A3000408A4000A08C9
:10001800A5007F08A6000A128A1160290A128A110F
:100028001528F901FA01FB01FC0183120313B3013E
:1000380083010A128A11202883160317890188016F
:100048008316031387018801091089100911061402
:1000580086140615861506168113FF3095008B1732
:100068000B108B159615961D3D2883160313161530
:100078004028831603131611161D462883160313EA
:1000880096144928831603139610961C4F28831636
:100098000313161452288316031316101616C030AD
:1000A80083120313880087000911891009101A3078
:1000B80083120313B2005E30B1006D30B000B00B94
:1000C8006328B10B6328B20B63286A2883120313D1
:1000D800330803196A287A08B0003008FC00FC1BB2
:1000E800BF280914891009110A30A7000030A80098
:1000F8007C08A900AA01A91BAA030A128A119A223C
:100108000A128A11831203132708013E84000A1277
:100118008A11E6230A128A1187000A30A7000030E4
:10012800A8007C08A900AA01A91BAA030A128A111F
:100138004E230A128A11831203132708013E8400F2
:100148000A128A11E6230A128A11880006308312DD
:100158000313B2001330B100AD30B000B00BB228B9
:10016800B10BB228B20BB228FF3083120313B000D0
:100178003008FC0773280530B0003008FC00FC1B71
:1001880010290910891409110A30A7000030A800A5
:100198007C08A900AA01A91BAA030A128A119A229B
:1001A8000A128A11831203132708013E84000A12D7
:1001B8008A11E6230A128A1187000A30A700003044
:1001C800A8007C08A900AA01A91BAA030A128A117F
:1001D8004E230A128A11831203132708013E840052
:1001E8000A128A11E6230A128A118800063083123D
:1001F8000313B2001330B100AD30B000B00B0229C8
:10020800B10B0229B20B0229FF3083120313B0008D
:100218003008FC07FC1FC5287908B0003008FC002E
:10022800FC1B6A280910891009150A30A70000303C
:10023800A8007C08A900AA01A91BAA030A128A110E
:100248009A220A128A11831203132708013E840096
:100258000A128A11E6230A128A1187000A30A700B7
:100268000030A8007C08A900AA01A91BAA030A1249
:100278008A114E230A128A11831203132708013E9A
:1002880084000A128A11E6230A128A1188000630AD
:1002980083120313B2001330B100AD30B000B00BBD
:1002A8005329B10B5329B20B5329FF30831203137F
:1002B800B0003008FC0714298B100B10061894297D
:1002C8000D3083120313A100FB30A000A00B6A2994
:1002D800A10B6A298312031306189429FB01FB1B3F
:1002E8006E29831203130910023089060911FF30A1
:1002F8008700FF308800063083120313A2001330F2
:10030800A100AD30A000A00B8729A10B8729A20B63
:100318008729013083120313A0002008FB077329E3
:100328008618C5290D3083120313A100FB30A000E5
:10033800A00B9C29A10B9C29831203138618C5299D
:10034800FB01FB1BA029831203130914891009114F
:10035800FF308700FF308800063083120313A200A5
:100368001330A100AD30A000A00BB829A10BB8290B
:10037800A20BB829013083120313A0002008FB0741
:10038800A5290619212A0D3083120313A100FB3079
:10039800A000A00BCD29A10BCD29831203130619A8
:1003A800212A0914091189100130A0002008FA0730
:1003B8007A08A0002008FC000A30F0000030F100A4
:1003C8007C08F200F301F21BF3030A128A11F522EA
:1003D8000A128A117008013E84000A128A11E62363
:1003E8000A128A118312031387000A30F0000030C2
:1003F800F1007C08F200F301F21BF3030A128A11E0
:100408009B230A128A117008013E84000A128A117D
:10041800E6230A128A118312031388000630831216
:100428000313A2001330A100AD30A000A00B1A2ABC
:10043800A10B1A2AA20B1A2AD12986197D2A0D3056
:1004480083120313A100FB30A000A00B292AA10BE3
:10045800292A8312031386197D2A09108910091580
:100468000130A0002008F9077908A0002008FC0046
:100478000A30F0000030F1007C08F200F301F21BB2
:10048800F3030A128A11F5220A128A117008013E32
:1004980084000A128A11E6230A128A1183120313AE
:1004A80087000A30F0000030F1007C08F200F30108
:1004B800F21BF3030A128A119B230A128A1170088D
:1004C800013E84000A128A11E6230A128A11831255
:1004D80003138800063083120313A2001330A1000F
:1004E800AD30A000A00B762AA10B762AA20B762AA3
:1004F8002D2A061A8F2A0D3083120313A100FB3010
:10050800A000A00B852AA10B852A83120313061EBF
:10051800892AB301B30A2608FF0025088A0024089F
:100528008400230E8300FE0E7E0E0900831203133F
:10053800AD01A81FA62AA709A809A70A0319A80A8E
:10054800AD01AD0AAA1FB12AA909AA09A90A031966
:10055800AA0A0130AB002B08AD06AE01AF0127088F
:1005680028040319E82AAC01AC0AA81BC72A0130E1
:100578000310A70DA80DFF3E031DBC2A0130AB00D8
:100588002B08AC07B92A01300310AE0DAF0DFF3EA2
:10059800031DC82A28082A02031DD42A270829026D
:1005A800031CDD2A2708A9022808031CAA03AA029B
:1005B8002E1401300310A80CA70CFF3E031DDE2AE1
:1005C8000130AC02031DC72A2D080319F02AAE0911
:1005D800AF09AE0A0319AF0A2F08A8002E08A70012
:1005E8000800F601F11FFF2AF009F109F00A0319C2
:1005F800F10AF601F60AF31F0A2BF209F309F20AC7
:100608000319F30A0130F4007408F606F701F8013B
:10061800700871040319412BF501F50AF11B202B11
:1006280001300310F00DF10DFF3E031D152B0130B5
:10063800F4007408F507122B01300310F70DF80DBC
:10064800FF3E031D212B71087302031D2D2B70081B
:100658007202031C362B7008F2027108031CF303A4
:10066800F302771401300310F10CF00CFF3E031D68
:10067800372B0130F502031D202B76080319492B6F
:10068800F709F809F70A0319F80A7808F100770852
:10069800F000080083120313AD01AA1F5A2BA90901
:1006A800AA09A90A0319AA0AAD01AD0AA81F612B54
:1006B800A709A809A70A0319A80A270828040319DB
:1006C8008E2BAC01AC0AA81B752B01300310A70DAB
:1006D800A80DFF3E031D6A2B0130AB002B08AC07A9
:1006E800672B28082A02031D7B2B27082902031CD5
:1006F800832B2708A9022808031CAA03AA02013091
:100708000310A80CA70CFF3E031D842B0130AC027C
:10071800031D752B2D080319962BA909AA09A90AE7
:100728000319AA0A2A08A8002908A7000800F60140
:10073800F31FA52BF209F309F20A0319F30AF601CC
:10074800F60AF11FAC2BF009F109F00A0319F10AB6
:10075800700871040319D92BF501F50AF11BC02B98
:1007680001300310F00DF10DFF3E031DB52B0130D4
:10077800F4007408F507B22B71087302031DC62B29
:1007880070087202031CCE2B7008F2027108031C59
:10079800F303F30201300310F10CF00CFF3E031DCC
:1007A800CF2B0130F502031DC02B76080319E12B6E
:1007B800F209F309F20A0319F30A7308F10072083F
:1007C800F000080003308A000408840A8207003415
:1007D800C034F934A434B034993492348234F834BF
:0407E8008034903495
:04400E00F2E0FFFFDE
:00000001FF
